{
  "_format": "hh-sol-artifact-1",
  "contractName": "CmdCodezNFT",
  "sourceName": "contracts/CmdCodezNFT.sol",
  "abi": [
    {
      "inputs": [],
      "stateMutability": "nonpayable",
      "type": "constructor"
    },
    {
      "anonymous": false,
      "inputs": [
        {
          "indexed": true,
          "internalType": "address",
          "name": "owner",
          "type": "address"
        },
        {
          "indexed": true,
          "internalType": "address",
          "name": "approved",
          "type": "address"
        },
        {
          "indexed": true,
          "internalType": "uint256",
          "name": "tokenId",
          "type": "uint256"
        }
      ],
      "name": "Approval",
      "type": "event"
    },
    {
      "anonymous": false,
      "inputs": [
        {
          "indexed": true,
          "internalType": "address",
          "name": "owner",
          "type": "address"
        },
        {
          "indexed": true,
          "internalType": "address",
          "name": "operator",
          "type": "address"
        },
        {
          "indexed": false,
          "internalType": "bool",
          "name": "approved",
          "type": "bool"
        }
      ],
      "name": "ApprovalForAll",
      "type": "event"
    },
    {
      "anonymous": false,
      "inputs": [
        {
          "indexed": false,
          "internalType": "address",
          "name": "sender",
          "type": "address"
        },
        {
          "indexed": false,
          "internalType": "uint256",
          "name": "tokenId",
          "type": "uint256"
        }
      ],
      "name": "CmdCodezNFTMinted",
      "type": "event"
    },
    {
      "anonymous": false,
      "inputs": [
        {
          "indexed": true,
          "internalType": "address",
          "name": "from",
          "type": "address"
        },
        {
          "indexed": true,
          "internalType": "address",
          "name": "to",
          "type": "address"
        },
        {
          "indexed": true,
          "internalType": "uint256",
          "name": "tokenId",
          "type": "uint256"
        }
      ],
      "name": "Transfer",
      "type": "event"
    },
    {
      "inputs": [
        {
          "internalType": "address",
          "name": "to",
          "type": "address"
        },
        {
          "internalType": "uint256",
          "name": "tokenId",
          "type": "uint256"
        }
      ],
      "name": "approve",
      "outputs": [],
      "stateMutability": "nonpayable",
      "type": "function"
    },
    {
      "inputs": [
        {
          "internalType": "address",
          "name": "owner",
          "type": "address"
        }
      ],
      "name": "balanceOf",
      "outputs": [
        {
          "internalType": "uint256",
          "name": "",
          "type": "uint256"
        }
      ],
      "stateMutability": "view",
      "type": "function"
    },
    {
      "inputs": [],
      "name": "buildNFT",
      "outputs": [],
      "stateMutability": "nonpayable",
      "type": "function"
    },
    {
      "inputs": [
        {
          "internalType": "uint256",
          "name": "tokenId",
          "type": "uint256"
        }
      ],
      "name": "getApproved",
      "outputs": [
        {
          "internalType": "address",
          "name": "",
          "type": "address"
        }
      ],
      "stateMutability": "view",
      "type": "function"
    },
    {
      "inputs": [],
      "name": "getTotalNFTsMinted",
      "outputs": [
        {
          "internalType": "uint256",
          "name": "",
          "type": "uint256"
        }
      ],
      "stateMutability": "view",
      "type": "function"
    },
    {
      "inputs": [
        {
          "internalType": "address",
          "name": "owner",
          "type": "address"
        },
        {
          "internalType": "address",
          "name": "operator",
          "type": "address"
        }
      ],
      "name": "isApprovedForAll",
      "outputs": [
        {
          "internalType": "bool",
          "name": "",
          "type": "bool"
        }
      ],
      "stateMutability": "view",
      "type": "function"
    },
    {
      "inputs": [],
      "name": "name",
      "outputs": [
        {
          "internalType": "string",
          "name": "",
          "type": "string"
        }
      ],
      "stateMutability": "view",
      "type": "function"
    },
    {
      "inputs": [
        {
          "internalType": "uint256",
          "name": "tokenId",
          "type": "uint256"
        }
      ],
      "name": "ownerOf",
      "outputs": [
        {
          "internalType": "address",
          "name": "",
          "type": "address"
        }
      ],
      "stateMutability": "view",
      "type": "function"
    },
    {
      "inputs": [
        {
          "internalType": "uint256",
          "name": "tokenId",
          "type": "uint256"
        }
      ],
      "name": "pickRandomFirstWord",
      "outputs": [
        {
          "internalType": "string",
          "name": "",
          "type": "string"
        }
      ],
      "stateMutability": "view",
      "type": "function"
    },
    {
      "inputs": [
        {
          "internalType": "uint256",
          "name": "tokenId",
          "type": "uint256"
        }
      ],
      "name": "pickRandomSecondWord",
      "outputs": [
        {
          "internalType": "string",
          "name": "",
          "type": "string"
        }
      ],
      "stateMutability": "view",
      "type": "function"
    },
    {
      "inputs": [
        {
          "internalType": "uint256",
          "name": "tokenId",
          "type": "uint256"
        }
      ],
      "name": "pickRandomThirdWord",
      "outputs": [
        {
          "internalType": "string",
          "name": "",
          "type": "string"
        }
      ],
      "stateMutability": "view",
      "type": "function"
    },
    {
      "inputs": [
        {
          "internalType": "address",
          "name": "from",
          "type": "address"
        },
        {
          "internalType": "address",
          "name": "to",
          "type": "address"
        },
        {
          "internalType": "uint256",
          "name": "tokenId",
          "type": "uint256"
        }
      ],
      "name": "safeTransferFrom",
      "outputs": [],
      "stateMutability": "nonpayable",
      "type": "function"
    },
    {
      "inputs": [
        {
          "internalType": "address",
          "name": "from",
          "type": "address"
        },
        {
          "internalType": "address",
          "name": "to",
          "type": "address"
        },
        {
          "internalType": "uint256",
          "name": "tokenId",
          "type": "uint256"
        },
        {
          "internalType": "bytes",
          "name": "_data",
          "type": "bytes"
        }
      ],
      "name": "safeTransferFrom",
      "outputs": [],
      "stateMutability": "nonpayable",
      "type": "function"
    },
    {
      "inputs": [
        {
          "internalType": "address",
          "name": "operator",
          "type": "address"
        },
        {
          "internalType": "bool",
          "name": "approved",
          "type": "bool"
        }
      ],
      "name": "setApprovalForAll",
      "outputs": [],
      "stateMutability": "nonpayable",
      "type": "function"
    },
    {
      "inputs": [
        {
          "internalType": "bytes4",
          "name": "interfaceId",
          "type": "bytes4"
        }
      ],
      "name": "supportsInterface",
      "outputs": [
        {
          "internalType": "bool",
          "name": "",
          "type": "bool"
        }
      ],
      "stateMutability": "view",
      "type": "function"
    },
    {
      "inputs": [],
      "name": "symbol",
      "outputs": [
        {
          "internalType": "string",
          "name": "",
          "type": "string"
        }
      ],
      "stateMutability": "view",
      "type": "function"
    },
    {
      "inputs": [
        {
          "internalType": "uint256",
          "name": "tokenId",
          "type": "uint256"
        }
      ],
      "name": "tokenURI",
      "outputs": [
        {
          "internalType": "string",
          "name": "",
          "type": "string"
        }
      ],
      "stateMutability": "view",
      "type": "function"
    },
    {
      "inputs": [
        {
          "internalType": "address",
          "name": "from",
          "type": "address"
        },
        {
          "internalType": "address",
          "name": "to",
          "type": "address"
        },
        {
          "internalType": "uint256",
          "name": "tokenId",
          "type": "uint256"
        }
      ],
      "name": "transferFrom",
      "outputs": [],
      "stateMutability": "nonpayable",
      "type": "function"
    }
  ],
  "bytecode": "0x60806040526040518061040001604052806103d581526020016200468d6103d591396008908051906020019062000038929190620006b3565b506040518061024001604052806102078152602001620044866102079139600990805190602001906200006d929190620006b3565b506040518060c001604052806040518060400160405280600a81526020017f7e2f70726f6a656374730000000000000000000000000000000000000000000081525081526020016040518060400160405280600681526020017f7e2f6e667473000000000000000000000000000000000000000000000000000081525081526020016040518060400160405280600e81526020017f2e2e2f2e2e2f64656c657465642f00000000000000000000000000000000000081525081526020016040518060400160405280600b81526020017f72756e20646973636f726400000000000000000000000000000000000000000081525081526020016040518060400160405280600981526020017f2e2e2f676d2e617070000000000000000000000000000000000000000000000081525081526020016040518060400160405280601181526020017f7e2f736372697074732f61697264726f70000000000000000000000000000000815250815250600a906006620001eb92919062000744565b506040518060c001604052806040518060400160405280600a81526020017f20646174612d666565640000000000000000000000000000000000000000000081525081526020016040518060400160405280600681526020017f206261736564000000000000000000000000000000000000000000000000000081525081526020016040518060400160405280600781526020017f2075706f6e6c790000000000000000000000000000000000000000000000000081525081526020016040518060400160405280600581526020017f207765623300000000000000000000000000000000000000000000000000000081525081526020016040518060400160405280600481526020017f2044414f0000000000000000000000000000000000000000000000000000000081525081526020016040518060400160405280600581526020017f20582d7570000000000000000000000000000000000000000000000000000000815250815250600b9060066200036992919062000744565b506040518060c001604052806040518060400160405280600881526020017f202d2d7761676d6900000000000000000000000000000000000000000000000081525081526020016040518060400160405280600981526020017f202d2d73656e646974000000000000000000000000000000000000000000000081525081526020016040518060400160405280600581526020017f202d2d676d00000000000000000000000000000000000000000000000000000081525081526020016040518060400160405280600781526020017f202d2d696e69740000000000000000000000000000000000000000000000000081525081526020016040518060400160405280600881526020017f202d2d666f72636500000000000000000000000000000000000000000000000081525081526020016040518060400160405280600981526020017f202d2d7265626173650000000000000000000000000000000000000000000000815250815250600c906006620004e792919062000744565b50348015620004f557600080fd5b506040518060400160405280600c81526020017f436f6d6d616e64436f64657a00000000000000000000000000000000000000008152506040518060400160405280600881526020017f434d44434f44455a00000000000000000000000000000000000000000000000081525081600090805190602001906200057a929190620006b3565b50806001908051906020019062000593929190620006b3565b505050620005e16040518060400160405280601281526020017f436f6d6d616e6420436f64657a204e46547a0000000000000000000000000000815250620005e760201b620011691760201c565b62000965565b6200068781604051602401620005fe919062000879565b6040516020818303038152906040527f41304fac000000000000000000000000000000000000000000000000000000007bffffffffffffffffffffffffffffffffffffffffffffffffffffffff19166020820180517bffffffffffffffffffffffffffffffffffffffffffffffffffffffff83818316178352505050506200068a60201b60201c565b50565b60008151905060006a636f6e736f6c652e6c6f679050602083016000808483855afa5050505050565b828054620006c190620008ef565b90600052602060002090601f016020900481019282620006e5576000855562000731565b82601f106200070057805160ff191683800117855562000731565b8280016001018555821562000731579182015b828111156200073057825182559160200191906001019062000713565b5b509050620007409190620007ab565b5090565b82805482825590600052602060002090810192821562000798579160200282015b828111156200079757825182908051906020019062000786929190620006b3565b509160200191906001019062000765565b5b509050620007a79190620007ca565b5090565b5b80821115620007c6576000816000905550600101620007ac565b5090565b5b80821115620007ee5760008181620007e49190620007f2565b50600101620007cb565b5090565b5080546200080090620008ef565b6000825580601f1062000814575062000835565b601f016020900490600052602060002090810190620008349190620007ab565b5b50565b600062000845826200089d565b620008518185620008a8565b935062000863818560208601620008b9565b6200086e8162000954565b840191505092915050565b6000602082019050818103600083015262000895818462000838565b905092915050565b600081519050919050565b600082825260208201905092915050565b60005b83811015620008d9578082015181840152602081019050620008bc565b83811115620008e9576000848401525b50505050565b600060028204905060018216806200090857607f821691505b602082108114156200091f576200091e62000925565b5b50919050565b7f4e487b7100000000000000000000000000000000000000000000000000000000600052602260045260246000fd5b6000601f19601f8301169050919050565b613b1180620009756000396000f3fe608060405234801561001057600080fd5b50600436106101165760003560e01c806370a08231116100a2578063b4c3b8be11610071578063b4c3b8be146102f1578063b88d4fde1461030f578063c575757a1461032b578063c87b56dd1461035b578063e985e9c51461038b57610116565b806370a082311461025757806395d89b4114610287578063a22cb465146102a5578063b187301f146102c157610116565b806323b872dd116100e957806323b872dd146101b55780632de38d68146101d157806342842e0e14610201578063564740731461021d5780636352211e1461022757610116565b806301ffc9a71461011b57806306fdde031461014b578063081812fc14610169578063095ea7b314610199575b600080fd5b61013560048036038101906101309190612569565b6103bb565b6040516101429190612cba565b60405180910390f35b61015361049d565b6040516101609190612cd5565b60405180910390f35b610183600480360381019061017e91906125bb565b61052f565b6040516101909190612c2a565b60405180910390f35b6101b360048036038101906101ae919061252d565b6105b4565b005b6101cf60048036038101906101ca9190612427565b6106cc565b005b6101eb60048036038101906101e691906125bb565b61072c565b6040516101f89190612cd5565b60405180910390f35b61021b60048036038101906102169190612427565b61084a565b005b61022561086a565b005b610241600480360381019061023c91906125bb565b610ab6565b60405161024e9190612c2a565b60405180910390f35b610271600480360381019061026c91906123c2565b610b68565b60405161027e9190612f55565b60405180910390f35b61028f610c20565b60405161029c9190612cd5565b60405180910390f35b6102bf60048036038101906102ba91906124f1565b610cb2565b005b6102db60048036038101906102d691906125bb565b610cc8565b6040516102e89190612cd5565b60405180910390f35b6102f9610de6565b6040516103069190612f55565b60405180910390f35b61032960048036038101906103249190612476565b610e03565b005b610345600480360381019061034091906125bb565b610e65565b6040516103529190612cd5565b60405180910390f35b610375600480360381019061037091906125bb565b610f83565b6040516103829190612cd5565b60405180910390f35b6103a560048036038101906103a091906123eb565b6110d5565b6040516103b29190612cba565b60405180910390f35b60007f80ac58cd000000000000000000000000000000000000000000000000000000007bffffffffffffffffffffffffffffffffffffffffffffffffffffffff1916827bffffffffffffffffffffffffffffffffffffffffffffffffffffffff1916148061048657507f5b5e139f000000000000000000000000000000000000000000000000000000007bffffffffffffffffffffffffffffffffffffffffffffffffffffffff1916827bffffffffffffffffffffffffffffffffffffffffffffffffffffffff1916145b80610496575061049582611202565b5b9050919050565b6060600080546104ac906131e9565b80601f01602080910402602001604051908101604052809291908181526020018280546104d8906131e9565b80156105255780601f106104fa57610100808354040283529160200191610525565b820191906000526020600020905b81548152906001019060200180831161050857829003601f168201915b5050505050905090565b600061053a8261126c565b610579576040517f08c379a000000000000000000000000000000000000000000000000000000000815260040161057090612eb5565b60405180910390fd5b6004600083815260200190815260200160002060009054906101000a900473ffffffffffffffffffffffffffffffffffffffff169050919050565b60006105bf82610ab6565b90508073ffffffffffffffffffffffffffffffffffffffff168373ffffffffffffffffffffffffffffffffffffffff161415610630576040517f08c379a000000000000000000000000000000000000000000000000000000000815260040161062790612f15565b60405180910390fd5b8073ffffffffffffffffffffffffffffffffffffffff1661064f6112d8565b73ffffffffffffffffffffffffffffffffffffffff16148061067e575061067d816106786112d8565b6110d5565b5b6106bd576040517f08c379a00000000000000000000000000000000000000000000000000000000081526004016106b490612df5565b60405180910390fd5b6106c783836112e0565b505050565b6106dd6106d76112d8565b82611399565b61071c576040517f08c379a000000000000000000000000000000000000000000000000000000000815260040161071390612f35565b60405180910390fd5b610727838383611477565b505050565b6060600061076061073c846116d3565b60405160200161074c9190612b5d565b604051602081830303815290604052611880565b9050600a80549050816107739190613295565b9050600a81815481106107af577f4e487b7100000000000000000000000000000000000000000000000000000000600052603260045260246000fd5b9060005260206000200180546107c4906131e9565b80601f01602080910402602001604051908101604052809291908181526020018280546107f0906131e9565b801561083d5780601f106108125761010080835404028352916020019161083d565b820191906000526020600020905b81548152906001019060200180831161082057829003601f168201915b5050505050915050919050565b61086583838360405180602001604052806000815250610e03565b505050565b600061087660076118b3565b9050601481106108bb576040517f08c379a00000000000000000000000000000000000000000000000000000000081526004016108b290612d35565b60405180910390fd5b60006108c68261072c565b905060006108d383610cc8565b905060006108e084610e65565b905060008383836040516020016108f993929190612ad9565b60405160208183030381529060405290506000600882600960405160200161092393929190612b0a565b6040516020818303038152906040529050600061096883610943846118c1565b604051602001610954929190612ba1565b6040516020818303038152906040526118c1565b905060008160405160200161097d9190612c08565b60405160208183030381529060405290506109cc6040518060400160405280601581526020017f0a2d2d2d2d2d2d2d2d2d2d2d2d2d2d2d2d2d2d2d2d0000000000000000000000815250611169565b6109f4816040516020016109e09190612b3b565b604051602081830303815290604052611169565b610a326040518060400160405280601581526020017f2d2d2d2d2d2d2d2d2d2d2d2d2d2d2d2d2d2d2d2d0a0000000000000000000000815250611169565b610a3c3389611a7f565b610a468882611a9d565b610a506007611b11565b610a73604051806060016040528060258152602001613a77602591398933611b27565b7f436b6ce77f8fd936f9cb04cbca8bc8fd086c1f7dc245c74d58f3d2afecb503733389604051610aa4929190612c91565b60405180910390a15050505050505050565b6000806002600084815260200190815260200160002060009054906101000a900473ffffffffffffffffffffffffffffffffffffffff169050600073ffffffffffffffffffffffffffffffffffffffff168173ffffffffffffffffffffffffffffffffffffffff161415610b5f576040517f08c379a0000000000000000000000000000000000000000000000000000000008152600401610b5690612e35565b60405180910390fd5b80915050919050565b60008073ffffffffffffffffffffffffffffffffffffffff168273ffffffffffffffffffffffffffffffffffffffff161415610bd9576040517f08c379a0000000000000000000000000000000000000000000000000000000008152600401610bd090612e15565b60405180910390fd5b600360008373ffffffffffffffffffffffffffffffffffffffff1673ffffffffffffffffffffffffffffffffffffffff168152602001908152602001600020549050919050565b606060018054610c2f906131e9565b80601f0160208091040260200160405190810160405280929190818152602001828054610c5b906131e9565b8015610ca85780601f10610c7d57610100808354040283529160200191610ca8565b820191906000526020600020905b815481529060010190602001808311610c8b57829003601f168201915b5050505050905090565b610cc4610cbd6112d8565b8383611bc6565b5050565b60606000610cfc610cd8846116d3565b604051602001610ce89190612be6565b604051602081830303815290604052611880565b9050600b8054905081610d0f9190613295565b9050600b8181548110610d4b577f4e487b7100000000000000000000000000000000000000000000000000000000600052603260045260246000fd5b906000526020600020018054610d60906131e9565b80601f0160208091040260200160405190810160405280929190818152602001828054610d8c906131e9565b8015610dd95780601f10610dae57610100808354040283529160200191610dd9565b820191906000526020600020905b815481529060010190602001808311610dbc57829003601f168201915b5050505050915050919050565b60006001610df460076118b3565b610dfe91906130ff565b905090565b610e14610e0e6112d8565b83611399565b610e53576040517f08c379a0000000000000000000000000000000000000000000000000000000008152600401610e4a90612f35565b60405180910390fd5b610e5f84848484611d33565b50505050565b60606000610e99610e75846116d3565b604051602001610e859190612b7f565b604051602081830303815290604052611880565b9050600c8054905081610eac9190613295565b9050600c8181548110610ee8577f4e487b7100000000000000000000000000000000000000000000000000000000600052603260045260246000fd5b906000526020600020018054610efd906131e9565b80601f0160208091040260200160405190810160405280929190818152602001828054610f29906131e9565b8015610f765780601f10610f4b57610100808354040283529160200191610f76565b820191906000526020600020905b815481529060010190602001808311610f5957829003601f168201915b5050505050915050919050565b6060610f8e8261126c565b610fcd576040517f08c379a0000000000000000000000000000000000000000000000000000000008152600401610fc490612e95565b60405180910390fd5b6000600660008481526020019081526020016000208054610fed906131e9565b80601f0160208091040260200160405190810160405280929190818152602001828054611019906131e9565b80156110665780601f1061103b57610100808354040283529160200191611066565b820191906000526020600020905b81548152906001019060200180831161104957829003601f168201915b505050505090506000611077611d8f565b905060008151141561108d5781925050506110d0565b6000825111156110c25780826040516020016110aa929190612ab5565b604051602081830303815290604052925050506110d0565b6110cb84611da6565b925050505b919050565b6000600560008473ffffffffffffffffffffffffffffffffffffffff1673ffffffffffffffffffffffffffffffffffffffff16815260200190815260200160002060008373ffffffffffffffffffffffffffffffffffffffff1673ffffffffffffffffffffffffffffffffffffffff16815260200190815260200160002060009054906101000a900460ff16905092915050565b6111ff8160405160240161117d9190612cd5565b6040516020818303038152906040527f41304fac000000000000000000000000000000000000000000000000000000007bffffffffffffffffffffffffffffffffffffffffffffffffffffffff19166020820180517bffffffffffffffffffffffffffffffffffffffffffffffffffffffff8381831617835250505050611e4d565b50565b60007f01ffc9a7000000000000000000000000000000000000000000000000000000007bffffffffffffffffffffffffffffffffffffffffffffffffffffffff1916827bffffffffffffffffffffffffffffffffffffffffffffffffffffffff1916149050919050565b60008073ffffffffffffffffffffffffffffffffffffffff166002600084815260200190815260200160002060009054906101000a900473ffffffffffffffffffffffffffffffffffffffff1673ffffffffffffffffffffffffffffffffffffffff1614159050919050565b600033905090565b816004600083815260200190815260200160002060006101000a81548173ffffffffffffffffffffffffffffffffffffffff021916908373ffffffffffffffffffffffffffffffffffffffff160217905550808273ffffffffffffffffffffffffffffffffffffffff1661135383610ab6565b73ffffffffffffffffffffffffffffffffffffffff167f8c5be1e5ebec7d5bd14f71427d1e84f3dd0314c0f7b2291e5b200ac8c7c3b92560405160405180910390a45050565b60006113a48261126c565b6113e3576040517f08c379a00000000000000000000000000000000000000000000000000000000081526004016113da90612dd5565b60405180910390fd5b60006113ee83610ab6565b90508073ffffffffffffffffffffffffffffffffffffffff168473ffffffffffffffffffffffffffffffffffffffff16148061145d57508373ffffffffffffffffffffffffffffffffffffffff166114458461052f565b73ffffffffffffffffffffffffffffffffffffffff16145b8061146e575061146d81856110d5565b5b91505092915050565b8273ffffffffffffffffffffffffffffffffffffffff1661149782610ab6565b73ffffffffffffffffffffffffffffffffffffffff16146114ed576040517f08c379a00000000000000000000000000000000000000000000000000000000081526004016114e490612ed5565b60405180910390fd5b600073ffffffffffffffffffffffffffffffffffffffff168273ffffffffffffffffffffffffffffffffffffffff16141561155d576040517f08c379a000000000000000000000000000000000000000000000000000000000815260040161155490612d95565b60405180910390fd5b611568838383611e76565b6115736000826112e0565b6001600360008573ffffffffffffffffffffffffffffffffffffffff1673ffffffffffffffffffffffffffffffffffffffff16815260200190815260200160002060008282546115c391906130ff565b925050819055506001600360008473ffffffffffffffffffffffffffffffffffffffff1673ffffffffffffffffffffffffffffffffffffffff168152602001908152602001600020600082825461161a919061301e565b92505081905550816002600083815260200190815260200160002060006101000a81548173ffffffffffffffffffffffffffffffffffffffff021916908373ffffffffffffffffffffffffffffffffffffffff160217905550808273ffffffffffffffffffffffffffffffffffffffff168473ffffffffffffffffffffffffffffffffffffffff167fddf252ad1be2c89b69c2b068fc378daa952ba7f163c4a11628f55a4df523b3ef60405160405180910390a4505050565b6060600082141561171b576040518060400160405280600181526020017f3000000000000000000000000000000000000000000000000000000000000000815250905061187b565b600082905060005b6000821461174d5780806117369061324c565b915050600a826117469190613074565b9150611723565b60008167ffffffffffffffff81111561178f577f4e487b7100000000000000000000000000000000000000000000000000000000600052604160045260246000fd5b6040519080825280601f01601f1916602001820160405280156117c15781602001600182028036833780820191505090505b5090505b60008514611874576001826117da91906130ff565b9150600a856117e99190613295565b60306117f5919061301e565b60f81b818381518110611831577f4e487b7100000000000000000000000000000000000000000000000000000000600052603260045260246000fd5b60200101907effffffffffffffffffffffffffffffffffffffffffffffffffffffffffffff1916908160001a905350600a8561186d9190613074565b94506117c5565b8093505050505b919050565b6000816040516020016118939190612a9e565b6040516020818303038152906040528051906020012060001c9050919050565b600081600001549050919050565b606060008251905060008114156118ea5760405180602001604052806000815250915050611a7a565b600060036002836118fb919061301e565b6119059190613074565b600461191191906130a5565b90506000602082611922919061301e565b67ffffffffffffffff811115611961577f4e487b7100000000000000000000000000000000000000000000000000000000600052604160045260246000fd5b6040519080825280601f01601f1916602001820160405280156119935781602001600182028036833780820191505090505b5090506000604051806060016040528060408152602001613a9c604091399050600181016020830160005b86811015611a375760038101905062ffffff818a015116603f8160121c168401518060081b905060ff603f83600c1c1686015116810190508060081b905060ff603f8360061c1686015116810190508060081b905060ff603f831686015116810190508060e01b905080845260048401935050506119be565b506003860660018114611a515760028114611a6157611a6c565b613d3d60f01b6002830352611a6c565b603d60f81b60018303525b508484525050819450505050505b919050565b611a99828260405180602001604052806000815250611e7b565b5050565b611aa68261126c565b611ae5576040517f08c379a0000000000000000000000000000000000000000000000000000000008152600401611adc90612e55565b60405180910390fd5b80600660008481526020019081526020016000209080519060200190611b0c92919061224e565b505050565b6001816000016000828254019250508190555050565b611bc1838383604051602401611b3f93929190612cf7565b6040516020818303038152906040527fe3849f79000000000000000000000000000000000000000000000000000000007bffffffffffffffffffffffffffffffffffffffffffffffffffffffff19166020820180517bffffffffffffffffffffffffffffffffffffffffffffffffffffffff8381831617835250505050611e4d565b505050565b8173ffffffffffffffffffffffffffffffffffffffff168373ffffffffffffffffffffffffffffffffffffffff161415611c35576040517f08c379a0000000000000000000000000000000000000000000000000000000008152600401611c2c90612db5565b60405180910390fd5b80600560008573ffffffffffffffffffffffffffffffffffffffff1673ffffffffffffffffffffffffffffffffffffffff16815260200190815260200160002060008473ffffffffffffffffffffffffffffffffffffffff1673ffffffffffffffffffffffffffffffffffffffff16815260200190815260200160002060006101000a81548160ff0219169083151502179055508173ffffffffffffffffffffffffffffffffffffffff168373ffffffffffffffffffffffffffffffffffffffff167f17307eab39ab6107e8899845ad3d59bd9653f200f220920489ca2b5937696c3183604051611d269190612cba565b60405180910390a3505050565b611d3e848484611477565b611d4a84848484611ed6565b611d89576040517f08c379a0000000000000000000000000000000000000000000000000000000008152600401611d8090612d55565b60405180910390fd5b50505050565b606060405180602001604052806000815250905090565b6060611db18261126c565b611df0576040517f08c379a0000000000000000000000000000000000000000000000000000000008152600401611de790612ef5565b60405180910390fd5b6000611dfa611d8f565b90506000815111611e1a5760405180602001604052806000815250611e45565b80611e24846116d3565b604051602001611e35929190612ab5565b6040516020818303038152906040525b915050919050565b60008151905060006a636f6e736f6c652e6c6f679050602083016000808483855afa5050505050565b505050565b611e85838361206d565b611e926000848484611ed6565b611ed1576040517f08c379a0000000000000000000000000000000000000000000000000000000008152600401611ec890612d55565b60405180910390fd5b505050565b6000611ef78473ffffffffffffffffffffffffffffffffffffffff1661223b565b15612060578373ffffffffffffffffffffffffffffffffffffffff1663150b7a02611f206112d8565b8786866040518563ffffffff1660e01b8152600401611f429493929190612c45565b602060405180830381600087803b158015611f5c57600080fd5b505af1925050508015611f8d57506040513d601f19601f82011682018060405250810190611f8a9190612592565b60015b612010573d8060008114611fbd576040519150601f19603f3d011682016040523d82523d6000602084013e611fc2565b606091505b50600081511415612008576040517f08c379a0000000000000000000000000000000000000000000000000000000008152600401611fff90612d55565b60405180910390fd5b805181602001fd5b63150b7a0260e01b7bffffffffffffffffffffffffffffffffffffffffffffffffffffffff1916817bffffffffffffffffffffffffffffffffffffffffffffffffffffffff191614915050612065565b600190505b949350505050565b600073ffffffffffffffffffffffffffffffffffffffff168273ffffffffffffffffffffffffffffffffffffffff1614156120dd576040517f08c379a00000000000000000000000000000000000000000000000000000000081526004016120d490612e75565b60405180910390fd5b6120e68161126c565b15612126576040517f08c379a000000000000000000000000000000000000000000000000000000000815260040161211d90612d75565b60405180910390fd5b61213260008383611e76565b6001600360008473ffffffffffffffffffffffffffffffffffffffff1673ffffffffffffffffffffffffffffffffffffffff1681526020019081526020016000206000828254612182919061301e565b92505081905550816002600083815260200190815260200160002060006101000a81548173ffffffffffffffffffffffffffffffffffffffff021916908373ffffffffffffffffffffffffffffffffffffffff160217905550808273ffffffffffffffffffffffffffffffffffffffff16600073ffffffffffffffffffffffffffffffffffffffff167fddf252ad1be2c89b69c2b068fc378daa952ba7f163c4a11628f55a4df523b3ef60405160405180910390a45050565b600080823b905060008111915050919050565b82805461225a906131e9565b90600052602060002090601f01602090048101928261227c57600085556122c3565b82601f1061229557805160ff19168380011785556122c3565b828001600101855582156122c3579182015b828111156122c25782518255916020019190600101906122a7565b5b5090506122d091906122d4565b5090565b5b808211156122ed5760008160009055506001016122d5565b5090565b60006123046122ff84612f95565b612f70565b90508281526020810184848401111561231c57600080fd5b6123278482856131a7565b509392505050565b60008135905061233e81613a1a565b92915050565b60008135905061235381613a31565b92915050565b60008135905061236881613a48565b92915050565b60008151905061237d81613a48565b92915050565b600082601f83011261239457600080fd5b81356123a48482602086016122f1565b91505092915050565b6000813590506123bc81613a5f565b92915050565b6000602082840312156123d457600080fd5b60006123e28482850161232f565b91505092915050565b600080604083850312156123fe57600080fd5b600061240c8582860161232f565b925050602061241d8582860161232f565b9150509250929050565b60008060006060848603121561243c57600080fd5b600061244a8682870161232f565b935050602061245b8682870161232f565b925050604061246c868287016123ad565b9150509250925092565b6000806000806080858703121561248c57600080fd5b600061249a8782880161232f565b94505060206124ab8782880161232f565b93505060406124bc878288016123ad565b925050606085013567ffffffffffffffff8111156124d957600080fd5b6124e587828801612383565b91505092959194509250565b6000806040838503121561250457600080fd5b60006125128582860161232f565b925050602061252385828601612344565b9150509250929050565b6000806040838503121561254057600080fd5b600061254e8582860161232f565b925050602061255f858286016123ad565b9150509250929050565b60006020828403121561257b57600080fd5b600061258984828501612359565b91505092915050565b6000602082840312156125a457600080fd5b60006125b28482850161236e565b91505092915050565b6000602082840312156125cd57600080fd5b60006125db848285016123ad565b91505092915050565b6125ed81613133565b82525050565b6125fc81613145565b82525050565b600061260d82612fdb565b6126178185612ff1565b93506126278185602086016131b6565b61263081613382565b840191505092915050565b600061264682612fe6565b6126508185613002565b93506126608185602086016131b6565b61266981613382565b840191505092915050565b600061267f82612fe6565b6126898185613013565b93506126998185602086016131b6565b80840191505092915050565b600081546126b2816131e9565b6126bc8186613013565b945060018216600081146126d757600181146126e85761271b565b60ff1983168652818601935061271b565b6126f185612fc6565b60005b83811015612713578154818901526001820191506020810190506126f4565b838801955050505b50505092915050565b6000612731602583613013565b915061273c82613393565b602582019050919050565b6000612754602283613002565b915061275f826133e2565b604082019050919050565b6000612777603283613002565b915061278282613431565b604082019050919050565b600061279a601c83613002565b91506127a582613480565b602082019050919050565b60006127bd600a83613013565b91506127c8826134a9565b600a82019050919050565b60006127e0602483613002565b91506127eb826134d2565b604082019050919050565b6000612803601983613002565b915061280e82613521565b602082019050919050565b6000612826602c83613002565b91506128318261354a565b604082019050919050565b6000612849603883613002565b915061285482613599565b604082019050919050565b600061286c602a83613002565b9150612877826135e8565b604082019050919050565b600061288f602983613002565b915061289a82613637565b604082019050919050565b60006128b2602e83613002565b91506128bd82613686565b604082019050919050565b60006128d5600483613013565b91506128e0826136d5565b600482019050919050565b60006128f8600283613013565b9150612903826136fe565b600282019050919050565b600061291b602083613002565b915061292682613727565b602082019050919050565b600061293e603183613002565b915061294982613750565b604082019050919050565b6000612961602c83613002565b915061296c8261379f565b604082019050919050565b6000612984602983613002565b915061298f826137ee565b604082019050919050565b60006129a7602f83613002565b91506129b28261383d565b604082019050919050565b60006129ca600a83613013565b91506129d58261388c565b600a82019050919050565b60006129ed600a83613013565b91506129f8826138b5565b600a82019050919050565b6000612a10602183613002565b9150612a1b826138de565b604082019050919050565b6000612a33601d83613013565b9150612a3e8261392d565b601d82019050919050565b6000612a56603183613002565b9150612a6182613956565b604082019050919050565b6000612a79605283613013565b9150612a84826139a5565b605282019050919050565b612a988161319d565b82525050565b6000612aaa8284612674565b915081905092915050565b6000612ac18285612674565b9150612acd8284612674565b91508190509392505050565b6000612ae58286612674565b9150612af18285612674565b9150612afd8284612674565b9150819050949350505050565b6000612b1682866126a5565b9150612b228285612674565b9150612b2e82846126a5565b9150819050949350505050565b6000612b4682612724565b9150612b528284612674565b915081905092915050565b6000612b68826127b0565b9150612b748284612674565b915081905092915050565b6000612b8a826128c8565b9150612b968284612674565b915081905092915050565b6000612bac826129bd565b9150612bb88285612674565b9150612bc382612a6c565b9150612bcf8284612674565b9150612bda826128eb565b91508190509392505050565b6000612bf1826129e0565b9150612bfd8284612674565b915081905092915050565b6000612c1382612a26565b9150612c1f8284612674565b915081905092915050565b6000602082019050612c3f60008301846125e4565b92915050565b6000608082019050612c5a60008301876125e4565b612c6760208301866125e4565b612c746040830185612a8f565b8181036060830152612c868184612602565b905095945050505050565b6000604082019050612ca660008301856125e4565b612cb36020830184612a8f565b9392505050565b6000602082019050612ccf60008301846125f3565b92915050565b60006020820190508181036000830152612cef818461263b565b905092915050565b60006060820190508181036000830152612d11818661263b565b9050612d206020830185612a8f565b612d2d60408301846125e4565b949350505050565b60006020820190508181036000830152612d4e81612747565b9050919050565b60006020820190508181036000830152612d6e8161276a565b9050919050565b60006020820190508181036000830152612d8e8161278d565b9050919050565b60006020820190508181036000830152612dae816127d3565b9050919050565b60006020820190508181036000830152612dce816127f6565b9050919050565b60006020820190508181036000830152612dee81612819565b9050919050565b60006020820190508181036000830152612e0e8161283c565b9050919050565b60006020820190508181036000830152612e2e8161285f565b9050919050565b60006020820190508181036000830152612e4e81612882565b9050919050565b60006020820190508181036000830152612e6e816128a5565b9050919050565b60006020820190508181036000830152612e8e8161290e565b9050919050565b60006020820190508181036000830152612eae81612931565b9050919050565b60006020820190508181036000830152612ece81612954565b9050919050565b60006020820190508181036000830152612eee81612977565b9050919050565b60006020820190508181036000830152612f0e8161299a565b9050919050565b60006020820190508181036000830152612f2e81612a03565b9050919050565b60006020820190508181036000830152612f4e81612a49565b9050919050565b6000602082019050612f6a6000830184612a8f565b92915050565b6000612f7a612f8b565b9050612f86828261321b565b919050565b6000604051905090565b600067ffffffffffffffff821115612fb057612faf613353565b5b612fb982613382565b9050602081019050919050565b60008190508160005260206000209050919050565b600081519050919050565b600081519050919050565b600082825260208201905092915050565b600082825260208201905092915050565b600081905092915050565b60006130298261319d565b91506130348361319d565b9250827fffffffffffffffffffffffffffffffffffffffffffffffffffffffffffffffff03821115613069576130686132c6565b5b828201905092915050565b600061307f8261319d565b915061308a8361319d565b92508261309a576130996132f5565b5b828204905092915050565b60006130b08261319d565b91506130bb8361319d565b9250817fffffffffffffffffffffffffffffffffffffffffffffffffffffffffffffffff04831182151516156130f4576130f36132c6565b5b828202905092915050565b600061310a8261319d565b91506131158361319d565b925082821015613128576131276132c6565b5b828203905092915050565b600061313e8261317d565b9050919050565b60008115159050919050565b60007fffffffff0000000000000000000000000000000000000000000000000000000082169050919050565b600073ffffffffffffffffffffffffffffffffffffffff82169050919050565b6000819050919050565b82818337600083830152505050565b60005b838110156131d45780820151818401526020810190506131b9565b838111156131e3576000848401525b50505050565b6000600282049050600182168061320157607f821691505b6020821081141561321557613214613324565b5b50919050565b61322482613382565b810181811067ffffffffffffffff8211171561324357613242613353565b5b80604052505050565b60006132578261319d565b91507fffffffffffffffffffffffffffffffffffffffffffffffffffffffffffffffff82141561328a576132896132c6565b5b600182019050919050565b60006132a08261319d565b91506132ab8361319d565b9250826132bb576132ba6132f5565b5b828206905092915050565b7f4e487b7100000000000000000000000000000000000000000000000000000000600052601160045260246000fd5b7f4e487b7100000000000000000000000000000000000000000000000000000000600052601260045260246000fd5b7f4e487b7100000000000000000000000000000000000000000000000000000000600052602260045260246000fd5b7f4e487b7100000000000000000000000000000000000000000000000000000000600052604160045260246000fd5b6000601f19601f8301169050919050565b7f68747470733a2f2f6e6674707265766965772e30786465762e636f6465732f3f60008201527f636f64653d000000000000000000000000000000000000000000000000000000602082015250565b7f616c6c20636f6d6d616e6420636f64657a2068617665206265656e206973737560008201527f6564000000000000000000000000000000000000000000000000000000000000602082015250565b7f4552433732313a207472616e7366657220746f206e6f6e20455243373231526560008201527f63656976657220696d706c656d656e7465720000000000000000000000000000602082015250565b7f4552433732313a20746f6b656e20616c7265616479206d696e74656400000000600082015250565b7f7e2f70726f6a6563747300000000000000000000000000000000000000000000600082015250565b7f4552433732313a207472616e7366657220746f20746865207a65726f2061646460008201527f7265737300000000000000000000000000000000000000000000000000000000602082015250565b7f4552433732313a20617070726f766520746f2063616c6c657200000000000000600082015250565b7f4552433732313a206f70657261746f7220717565727920666f72206e6f6e657860008201527f697374656e7420746f6b656e0000000000000000000000000000000000000000602082015250565b7f4552433732313a20617070726f76652063616c6c6572206973206e6f74206f7760008201527f6e6572206e6f7220617070726f76656420666f7220616c6c0000000000000000602082015250565b7f4552433732313a2062616c616e636520717565727920666f7220746865207a6560008201527f726f206164647265737300000000000000000000000000000000000000000000602082015250565b7f4552433732313a206f776e657220717565727920666f72206e6f6e657869737460008201527f656e7420746f6b656e0000000000000000000000000000000000000000000000602082015250565b7f45524337323155524953746f726167653a2055524920736574206f66206e6f6e60008201527f6578697374656e7420746f6b656e000000000000000000000000000000000000602082015250565b7f202d2d7700000000000000000000000000000000000000000000000000000000600082015250565b7f227d000000000000000000000000000000000000000000000000000000000000600082015250565b7f4552433732313a206d696e7420746f20746865207a65726f2061646472657373600082015250565b7f45524337323155524953746f726167653a2055524920717565727920666f722060008201527f6e6f6e6578697374656e7420746f6b656e000000000000000000000000000000602082015250565b7f4552433732313a20617070726f76656420717565727920666f72206e6f6e657860008201527f697374656e7420746f6b656e0000000000000000000000000000000000000000602082015250565b7f4552433732313a207472616e73666572206f6620746f6b656e2074686174206960008201527f73206e6f74206f776e0000000000000000000000000000000000000000000000602082015250565b7f4552433732314d657461646174613a2055524920717565727920666f72206e6f60008201527f6e6578697374656e7420746f6b656e0000000000000000000000000000000000602082015250565b7f7b226e616d65223a202200000000000000000000000000000000000000000000600082015250565b7f20646174612d6665656400000000000000000000000000000000000000000000600082015250565b7f4552433732313a20617070726f76616c20746f2063757272656e74206f776e6560008201527f7200000000000000000000000000000000000000000000000000000000000000602082015250565b7f646174613a6170706c69636174696f6e2f6a736f6e3b6261736536342c000000600082015250565b7f4552433732313a207472616e736665722063616c6c6572206973206e6f74206f60008201527f776e6572206e6f7220617070726f766564000000000000000000000000000000602082015250565b7f222c20226465736372697074696f6e223a2022466f6c6465722061636365737360008201527f20746f206d616b65206974222c2022696d616765223a2022646174613a696d6160208201527f67652f7376672b786d6c3b6261736536342c0000000000000000000000000000604082015250565b613a2381613133565b8114613a2e57600080fd5b50565b613a3a81613145565b8114613a4557600080fd5b50565b613a5181613151565b8114613a5c57600080fd5b50565b613a688161319d565b8114613a7357600080fd5b5056fe416e204e465420772f20494420257320686173206265656e206d696e74656420746f2025734142434445464748494a4b4c4d4e4f505152535455565758595a6162636465666768696a6b6c6d6e6f707172737475767778797a303132333435363738392b2fa26469706673582212202635102c8f93ef95332339857e8d980953c6f2d2cde867bf914e48c1b1659bfe64736f6c634300080400333c2f746578743e20203c7265637420783d2736252720793d27333025272077696474683d2738302527206865696768743d27343025272066696c6c3d27233232322720636c6173733d27626727202f3e203c7265637420783d273132252720793d27353025272077696474683d2732707827206865696768743d2731337078272066696c6c3d27236363632720636c6173733d27636861726574272f3e2020203c7265637420783d2736252720793d27333025272077696474683d2738382527206865696768743d2734302527202066696c6c3d277472616e73706172656e7427207374726f6b653d272363636327207374726f6b652d77696474683d27302e3527202f3e20203c726563742020783d2736252720793d27333025272077696474683d2738382527206865696768743d273131707827202066696c6c3d272363636327202f3e203c726563742020783d2736252720793d27333025272077696474683d2738382527206865696768743d273131707827202066696c6c3d272363636327202f3e203c746578742020783d2739322e35252720793d2733322e3735252720206865696768743d27313070782720646f6d696e616e742d626173656c696e653d276d6964646c652720746578742d616e63686f723d276d6964646c652720636c6173733d27636c6f7365273e26237830303044373b3c2f746578743e203c2f7376673e3c73766720786d6c6e733d27687474703a2f2f7777772e77332e6f72672f323030302f73766727207072657365727665417370656374526174696f3d27784d696e594d696e206d656574272076696577426f783d273020302033353020323030273e203c7374796c653e202e62617365207b2066696c6c3a20236363633b20666f6e742d66616d696c793a206d6f6e6f73706163653b20666f6e742d73697a653a20313470783b206c65747465722d73706163696e673a203070783b7d202e636c6f7365207b2066696c6c3a20233232323b20666f6e742d66616d696c793a206d6f6e6f73706163653b20666f6e742d73697a653a20313270783b206c65747465722d73706163696e673a203070783b7d202e6267207b20616e696d6174696f6e3a20747970652073746570732833302920666f72776172647320342e357320696e66696e6974653b207d202e636861726574207b20616e696d6174696f6e3a20626c696e6b20302e367320696e66696e69746520656173652d696e2d6f75742c206368617265742073746570732833302920666f72776172647320342e357320696e66696e6974653b207d20406b65796672616d65732074797065207b203025207b20783a2038253b2077696474683a203835253b207d20373025207b20783a203930253b2077696474683a2032253b207d2031303025207b20783a203930253b2077696474683a2032253b207d207d20406b65796672616d657320636861726574207b203025207b20783a2038253b207d20373025207b20783a203839253b207d2031303025207b20783a203839253b207d207d20406b65796672616d657320626c696e6b207b2066726f6d207b206f7061636974793a20302e393b207d20746f207b206f7061636974793a20302e323b207d207d203c2f7374796c653e203c726563742077696474683d273130302527206865696768743d2731303025272066696c6c3d272332323227202f3e203c7265637420783d27372e35252720793d2733312e373525272077696474683d2738382527206865696768743d2734302527202066696c6c3d272331313127206f7061636974793d272e342720202f3e203c7265637420783d2736252720793d27333025272077696474683d2738382527206865696768743d2734302527202066696c6c3d272332323227207374726f6b653d272363636327207374726f6b652d77696474683d27302e3527202f3e203c746578742020783d273530252720793d273533252720636c6173733d27626173652720646f6d696e616e742d626173656c696e653d276d6964646c652720746578742d616e63686f723d276d6964646c65273e",
  "linkReferences": {},
  "deployedLinkReferences": {}
}